{
  "_format": "hh-sol-artifact-1",
  "contractName": "ConditionalPayment",
  "sourceName": "contracts/ConditionalPayment.sol",
  "abi": [
    {
      "inputs": [
        {
          "internalType": "address",
          "name": "_payee",
          "type": "address"
        },
        {
          "internalType": "uint256",
          "name": "_amount",
          "type": "uint256"
        },
        {
          "internalType": "string",
          "name": "_condition",
          "type": "string"
        }
      ],
      "stateMutability": "payable",
      "type": "constructor"
    },
    {
      "inputs": [],
      "name": "amount",
      "outputs": [
        {
          "internalType": "uint256",
          "name": "",
          "type": "uint256"
        }
      ],
      "stateMutability": "view",
      "type": "function"
    },
    {
      "inputs": [],
      "name": "condition",
      "outputs": [
        {
          "internalType": "string",
          "name": "",
          "type": "string"
        }
      ],
      "stateMutability": "view",
      "type": "function"
    },
    {
      "inputs": [],
      "name": "getDetails",
      "outputs": [
        {
          "internalType": "address",
          "name": "",
          "type": "address"
        },
        {
          "internalType": "address",
          "name": "",
          "type": "address"
        },
        {
          "internalType": "uint256",
          "name": "",
          "type": "uint256"
        },
        {
          "internalType": "string",
          "name": "",
          "type": "string"
        },
        {
          "internalType": "bool",
          "name": "",
          "type": "bool"
        }
      ],
      "stateMutability": "view",
      "type": "function"
    },
    {
      "inputs": [],
      "name": "isPaid",
      "outputs": [
        {
          "internalType": "bool",
          "name": "",
          "type": "bool"
        }
      ],
      "stateMutability": "view",
      "type": "function"
    },
    {
      "inputs": [],
      "name": "payee",
      "outputs": [
        {
          "internalType": "address",
          "name": "",
          "type": "address"
        }
      ],
      "stateMutability": "view",
      "type": "function"
    },
    {
      "inputs": [],
      "name": "payer",
      "outputs": [
        {
          "internalType": "address",
          "name": "",
          "type": "address"
        }
      ],
      "stateMutability": "view",
      "type": "function"
    },
    {
      "inputs": [],
      "name": "releasePayment",
      "outputs": [],
      "stateMutability": "nonpayable",
      "type": "function"
    }
  ],
  "bytecode": "0x608060405260405162000f7038038062000f7083398181016040528101906200002991906200035f565b8134146200006e576040517f08c379a000000000000000000000000000000000000000000000000000000000815260040162000065906200043b565b60405180910390fd5b336000806101000a81548173ffffffffffffffffffffffffffffffffffffffff021916908373ffffffffffffffffffffffffffffffffffffffff16021790555082600160006101000a81548173ffffffffffffffffffffffffffffffffffffffff021916908373ffffffffffffffffffffffffffffffffffffffff1602179055508160028190555080600390816200010791906200069e565b506000600460006101000a81548160ff02191690831515021790555050505062000785565b6000604051905090565b600080fd5b600080fd5b600073ffffffffffffffffffffffffffffffffffffffff82169050919050565b60006200016d8262000140565b9050919050565b6200017f8162000160565b81146200018b57600080fd5b50565b6000815190506200019f8162000174565b92915050565b6000819050919050565b620001ba81620001a5565b8114620001c657600080fd5b50565b600081519050620001da81620001af565b92915050565b600080fd5b600080fd5b6000601f19601f8301169050919050565b7f4e487b7100000000000000000000000000000000000000000000000000000000600052604160045260246000fd5b6200023582620001ea565b810181811067ffffffffffffffff82111715620002575762000256620001fb565b5b80604052505050565b60006200026c6200012c565b90506200027a82826200022a565b919050565b600067ffffffffffffffff8211156200029d576200029c620001fb565b5b620002a882620001ea565b9050602081019050919050565b60005b83811015620002d5578082015181840152602081019050620002b8565b60008484015250505050565b6000620002f8620002f2846200027f565b62000260565b905082815260208101848484011115620003175762000316620001e5565b5b62000324848285620002b5565b509392505050565b600082601f830112620003445762000343620001e0565b5b815162000356848260208601620002e1565b91505092915050565b6000806000606084860312156200037b576200037a62000136565b5b60006200038b868287016200018e565b93505060206200039e86828701620001c9565b925050604084015167ffffffffffffffff811115620003c257620003c16200013b565b5b620003d0868287016200032c565b9150509250925092565b600082825260208201905092915050565b7f4d7573742073656e6420657861637420616d6f756e7400000000000000000000600082015250565b600062000423601683620003da565b91506200043082620003eb565b602082019050919050565b60006020820190508181036000830152620004568162000414565b9050919050565b600081519050919050565b7f4e487b7100000000000000000000000000000000000000000000000000000000600052602260045260246000fd5b60006002820490506001821680620004b057607f821691505b602082108103620004c657620004c562000468565b5b50919050565b60008190508160005260206000209050919050565b60006020601f8301049050919050565b600082821b905092915050565b600060088302620005307fffffffffffffffffffffffffffffffffffffffffffffffffffffffffffffffff82620004f1565b6200053c8683620004f1565b95508019841693508086168417925050509392505050565b6000819050919050565b60006200057f620005796200057384620001a5565b62000554565b620001a5565b9050919050565b6000819050919050565b6200059b836200055e565b620005b3620005aa8262000586565b848454620004fe565b825550505050565b600090565b620005ca620005bb565b620005d781848462000590565b505050565b5b81811015620005ff57620005f3600082620005c0565b600181019050620005dd565b5050565b601f8211156200064e576200061881620004cc565b6200062384620004e1565b8101602085101562000633578190505b6200064b6200064285620004e1565b830182620005dc565b50505b505050565b600082821c905092915050565b6000620006736000198460080262000653565b1980831691505092915050565b60006200068e838362000660565b9150826002028217905092915050565b620006a9826200045d565b67ffffffffffffffff811115620006c557620006c4620001fb565b5b620006d1825462000497565b620006de82828562000603565b600060209050601f83116001811462000716576000841562000701578287015190505b6200070d858262000680565b8655506200077d565b601f1984166200072686620004cc565b60005b82811015620007505784890151825560018201915060208501945060208101905062000729565b868310156200077057848901516200076c601f89168262000660565b8355505b6001600288020188555050505b505050505050565b6107db80620007956000396000f3fe608060405234801561001057600080fd5b506004361061007d5760003560e01c8063ae90b2131161005b578063ae90b213146100dc578063c5031331146100fa578063d116c8c414610118578063fbbf93a0146101225761007d565b8063123119cd14610082578063209ebc08146100a0578063aa8c217c146100be575b600080fd5b61008a610144565b60405161009791906104dc565b60405180910390f35b6100a8610168565b6040516100b59190610512565b60405180910390f35b6100c661017b565b6040516100d39190610546565b60405180910390f35b6100e4610181565b6040516100f191906104dc565b60405180910390f35b6101026101a7565b60405161010f91906105f1565b60405180910390f35b610120610235565b005b61012a61039b565b60405161013b959493929190610613565b60405180910390f35b60008054906101000a900473ffffffffffffffffffffffffffffffffffffffff1681565b600460009054906101000a900460ff1681565b60025481565b600160009054906101000a900473ffffffffffffffffffffffffffffffffffffffff1681565b600380546101b49061069c565b80601f01602080910402602001604051908101604052809291908181526020018280546101e09061069c565b801561022d5780601f106102025761010080835404028352916020019161022d565b820191906000526020600020905b81548152906001019060200180831161021057829003601f168201915b505050505081565b600460009054906101000a900460ff1615610285576040517f08c379a000000000000000000000000000000000000000000000000000000000815260040161027c90610719565b60405180910390fd5b60008054906101000a900473ffffffffffffffffffffffffffffffffffffffff1673ffffffffffffffffffffffffffffffffffffffff163373ffffffffffffffffffffffffffffffffffffffff1614610313576040517f08c379a000000000000000000000000000000000000000000000000000000000815260040161030a90610785565b60405180910390fd5b6001600460006101000a81548160ff021916908315150217905550600160009054906101000a900473ffffffffffffffffffffffffffffffffffffffff1673ffffffffffffffffffffffffffffffffffffffff166108fc6002549081150290604051600060405180830381858888f19350505050158015610398573d6000803e3d6000fd5b50565b6000806000606060008060009054906101000a900473ffffffffffffffffffffffffffffffffffffffff16600160009054906101000a900473ffffffffffffffffffffffffffffffffffffffff166002546003600460009054906101000a900460ff1681805461040a9061069c565b80601f01602080910402602001604051908101604052809291908181526020018280546104369061069c565b80156104835780601f1061045857610100808354040283529160200191610483565b820191906000526020600020905b81548152906001019060200180831161046657829003601f168201915b50505050509150945094509450945094509091929394565b600073ffffffffffffffffffffffffffffffffffffffff82169050919050565b60006104c68261049b565b9050919050565b6104d6816104bb565b82525050565b60006020820190506104f160008301846104cd565b92915050565b60008115159050919050565b61050c816104f7565b82525050565b60006020820190506105276000830184610503565b92915050565b6000819050919050565b6105408161052d565b82525050565b600060208201905061055b6000830184610537565b92915050565b600081519050919050565b600082825260208201905092915050565b60005b8381101561059b578082015181840152602081019050610580565b60008484015250505050565b6000601f19601f8301169050919050565b60006105c382610561565b6105cd818561056c565b93506105dd81856020860161057d565b6105e6816105a7565b840191505092915050565b6000602082019050818103600083015261060b81846105b8565b905092915050565b600060a08201905061062860008301886104cd565b61063560208301876104cd565b6106426040830186610537565b818103606083015261065481856105b8565b90506106636080830184610503565b9695505050505050565b7f4e487b7100000000000000000000000000000000000000000000000000000000600052602260045260246000fd5b600060028204905060018216806106b457607f821691505b6020821081036106c7576106c661066d565b5b50919050565b7f416c726561647920706169640000000000000000000000000000000000000000600082015250565b6000610703600c8361056c565b915061070e826106cd565b602082019050919050565b60006020820190508181036000830152610732816106f6565b9050919050565b7f4f6e6c792070617965722063616e2072656c6561736500000000000000000000600082015250565b600061076f60168361056c565b915061077a82610739565b602082019050919050565b6000602082019050818103600083015261079e81610762565b905091905056fea26469706673582212200caa0b5be5e1c50368223a10f55b767d4a2c16676da014aea7a871a1d3e29b6a64736f6c63430008140033",
  "linkReferences": {},
  "deployedLinkReferences": {}
}